:020000040800F2
:10000000B0060020050100080D0100080F010008DE
:10001000110100081301000815010008000000008C
:1000200000000000000000000000000017010008B0
:1000300019010008000000001B0100081D21000834
:100040001F0100081F0100081F0100081F01000810
:100050001F0100081F0100081F0100081F01000800
:100060001F0100081F0100081F0100081F010008F0
:100070001F0100081F0100081F0100081F010008E0
:100080001F0100081F0100081F0100081F010008D0
:100090001F0100081F0100081F0100086D13000860
:1000A0001F0100081F0100081F0100081F010008B0
:1000B0001F0100081F0100081F0100081F010008A0
:1000C0001F0100081F0100081F0100081F01000890
:1000D0001F010008352700081F0100081F01000844
:1000E0006D1200081F0100081F010008DFF810D082
:1000F00000F00CFD004800470D4A0008AFF30080F7
:10010000B00600200648804706480047FEE7FEE7A5
:10011000FEE7FEE7FEE7FEE7FEE7FEE7FEE7FEE7B7
:100120002D210008ED000008F0B480EA0102D40F90
:100130004200B2EB410F02D20246084611464A0085
:1001400042D0C30DDDB2C1F3C752AD1A202D35DA4E
:10015000C1F3160141F4000204B15242C5F1200678
:1001600002FA06F12A411044B3EBD05F23D0C4B1A8
:10017000012DA0EBC35009DCF0BC4FF0004202EAB5
:10018000C352DBB200F5000000F0D9BB400000F123
:10019000807000EBC350A0F1807040EAD17049003C
:1001A00009E0490841EAC071A0EBC35000F5000026
:1001B000400800EBC350F0BC00F0B8BB6142012224
:1001C00002EB4101001BF6E7F0BC704781F00041F3
:1001D000AAE780F00040A7E780EA010210B502F02C
:1001E0000043400022D04A001FD0010E01EB1261F3
:1001F000C0F35600C2F3560240F4000042F400027D
:10020000A0FB022000047F39140400D0401C50EAF7
:10021000124001D44000491EC2B20C0604EBD010BB
:10022000401C4008802A02D003E0002010BD20F0CE
:100230000100002900DA0020184310BD30B480EA24
:10024000010202F0004530F0004221F0004013D0DE
:1002500090B1C30DD40DC2F31601C0F31600E41A19
:1002600041F4000140F400027D34914201D3641C4A
:1002700000E04900002C02DA30BC002070474FF447
:1002800000000023914201D3891A034340084FEA3A
:100290004101F7D151B1914202D14FF0004105E047
:1002A00002D24FF0010101E06FF0010103EBC450F5
:1002B000284430BC00F03ABB2DE9FE4F804681EA6D
:1002C0000300C00F0C46009021F0004123F00045D0
:1002D000B8EB0200A94105D24046214690461C4693
:1002E0000B46024623F00040104347D0270DC7F3CA
:1002F0000A00C3F30A510290401A019040286BDAB9
:10030000C3F3130040F4801B0098924620B10023F1
:10031000D2EB030A63EB0B0B01985946C0F1400284
:10032000504600F084FA06460D4650465946019A5A
:1003300000F09CFA10EB08006141002487EA11529A
:1003400084EAE7731A4340D0009A62B3019A012A03
:100350004FEA075215DC001B61EB02014FF000422F
:1003600002EA0752CDE90042001C41F580113246F5
:100370002B4600F021FB03B0BDE8F08F404621463C
:10038000F9E7001B61EB0201001C41F58013001826
:100390005B412018A2F5001747EB030140EAD57036
:1003A000B6196D4111E06D084FEA360645EAC07591
:1003B0004FEA0752001B61EB0201001C41F580115E
:1003C00049084FEA30000019514132462B4603B02C
:1003D000BDE8F04F00F0E1BA009801224000002390
:1003E000D0EB020263EBE073009821464FEAE07421
:1003F000B8EB000061EB0401E9E783F000435BE741
:1004000081F0004158E72DE9FE4F81EA030404F032
:10041000004421F0004100944FF0000B23F0004312
:1004200050EA01045ED052EA03045BD0C3F30A54DD
:10043000C1F30A552C44A4F2F3340194A0FB0254F6
:10044000C1F3130141F48011C3F3130343F4801388
:1004500001FB024400FB034E840A970A44EA8154DC
:1004600047EA8357A4FB076802958D0A05FB0785B9
:100470004FEA932C04FB0C542705029D4FEA0658C3
:1004800047EA1637B5EB08056EEB070C870E920EA0
:1004900047EA811742EA8312A7FB0201B6EB0B0180
:1004A00064EB00042B0D43EA0C335E1844EB1C5044
:1004B000DA465146E7FB0201C5F313044FEA0B335A
:1004C00043EA14534FEA0432019C43EA0603A4F1C1
:1004D0000C040294009CCDE900B400F06DFA03B066
:1004E000BDE8F08F00200146F9E72DE9F04D81EAE3
:1004F000030404F0004B21F0004514464FF0000ABD
:1005000023F0004150EA050220D054EA01021DD038
:10051000C5F30A570246C5F31303C1F31300C1F331
:100520000A5640F4801543F48013A7EB0608101B0D
:10053000D64608F2FD3873EB050002D308F1010836
:1005400001E092185B41B8F1000F03DA0020014688
:10055000BDE8F08D00204FF48011064684460EE081
:10056000171B73EB050705D3121B63EB050306434B
:100570004CEA010C49084FEA300092185B4150EAFE
:100580000107EDD152EA030012D082EA040083EAA7
:100590000501084305D0101BAB4106D20122002300
:1005A00006E000224FF0004302E06FF0010253101A
:1005B0001AEB06004CEB085110EB0A0041EB0B0163
:1005C000BDE8F04D00F0E9B9C10F80EAE0700844E1
:1005D000CA079623002100F0B2B9962300221146E3
:1005E00000F0ADB90EB5C10F80EAE0700844CA074B
:1005F000002140F233438DE80E000A460B4600F01E
:10060000DBF903B000BD0EB540F233410291002189
:10061000CDE900110A460B4600F0CEF903B000BD4B
:1006200020F00040C10DC0F3160040F400007F2907
:1006300001DA00207047962903DCC1F19601C84019
:10064000704796398840704770B5C1F30A5201F07F
:1006500000450024C1F3130140F2FF3341F480113F
:100660009A4201DA002070BD40F233439A42A2F26E
:10067000334203DC524200F0E9F800E090402C43A2
:10068000F1D0404270BDC1F30A5210B5C1F313015D
:1006900040F2FF3341F480119A4201DA002010BD8C
:1006A00040F233439A42A2F2334203DC524200F05A
:1006B000CDF810BD904010BD00F0004230F0004079
:1006C0000AD0C10D01F56071C0F3160042EA015174
:1006D000C2084007114370470020014670470000E0
:1006E00030B5041E71F1000404DB4FF000444042B9
:1006F00064EB0101141E73F1000405DB1C464FF08E
:100700000043524263EB04038B4208BF824230BD78
:1007100030B5041E71F1000404DB4FF00044404288
:1007200064EB0101141E73F1000405DB1C464FF05D
:100730000043524263EB0403994208BF904230BD2C
:1007400001F0004330B421F0004150EA010206D02C
:100750000A0DA2F56072C1F31301002A02DC30BC5D
:1007600000207047440F44EAC104C100E01830BCC7
:1007700000EBC25000F0DAB8002801DBC0F1004005
:10078000002901DBC1F1004181427047002801DBF3
:10079000C0F10040002901DBC1F1004188427047EF
:1007A00030B50B46014600202022012409E021FA41
:1007B00002F59D4205D303FA02F5491B04FA02F53E
:1007C0002844151EA2F10102F1DC30BD2DE9F05FD5
:1007D0000546002092469B468846064681464024B0
:1007E0001BE0284641464746224600F02FF8534674
:1007F0005A46C01A914110D311461846224600F0BD
:1008000016F82D1A67EB01084F46224601200021F9
:1008100000F00DF817EB00094E41201EA4F1010471
:10082000DFDC484631462A464346BDE8F09F202A91
:1008300004DB203A00FA02F1002070479140C2F137
:10084000200320FA03F3194390407047202A04DB69
:10085000203A21FA02F00021704721FA02F3D04039
:10086000C2F120029140084319467047202A06DB56
:10087000CB17203A41FA02F043EAE07306E041FA6E
:1008800002F3D040C2F1200291400843194670475C
:100890000FB4002300B589B00CA900910B996FF03B
:1008A0000042CB601E4B06931E4B07930423CDE9F9
:1008B00001321D4A089202466B46002000F0D2F930
:1008C00009B05DF814FB70B586B006464FF0FF30F6
:1008D0000091CDE90101002015460C4604903246F6
:1008E000694604A8FFF7D4FF02460498211825B1F1
:1008F00008B1084600E020462860049800280DD082
:10090000002A02DD0098884208D0081B0094CDE937
:1009100001043246694604A8FFF7BAFF06B070BD6D
:100920009D0E0008BB0E0008310B00080029A8BF6F
:100930007047401C490008BF20F00100704710B408
:10094000B0FA80FC00FA0CF050EA010404BF10BCBD
:10095000704749B1CCF1200421FA04F411FA0CF1EA
:1009600018BF012121430843A3EB0C01CB1D4FEA23
:1009700000614FEA102042BF002010BC704700EB1E
:10098000C35010440029A4BF10BC7047401C49004C
:1009900008BF20F0010010BC704710B5141E73F1A1
:1009A000000408DA401C41F1000192185B411A432F
:1009B00001D120F0010010BD2DE9F04D92469B467B
:1009C00011B1B1FA81F202E0B0FA80F22032904621
:1009D000FFF72DFF04460F4640EA0A0041EA0B01EB
:1009E00053465A46084313D0114653EA010019D022
:1009F000C8F140025046FFF729FF05460E46504613
:100A000059464246FFF713FF084305D0012004E092
:100A100020463946BDE8F08D0020054346EAE076E1
:100A20002C4337430A986305E40AA0EB0800002230
:100A3000FD0A44EA47540A3002D500200146E9E79E
:100A4000010510196941DDE9084500196941BDE852
:100A5000F04DA2E72DE9FE4FC3F30A5701F0004520
:100A60000024C1F30A56C3F31303C1F3130143F483
:100A7000801312EB020AA64641F48011009543EB65
:100A8000030CA7F1010B16E0B0EB0A0061EB0C01BF
:100A9000071E71F1000707DA4FF00008D0EB0800DD
:100AA00085F0004568EB0101171A73EB0107EBD3E2
:100AB000761E001849415E45F6DA50EA010209D077
:100AC000CDE900E5002213460296FFF775FF03B05B
:100AD000BDE8F08F20460099F9E7C1F30A52C1F34F
:100AE000130140F2FF3341F480119A4202DA0020F0
:100AF0000146704740F233439A42A2F2334202DC8D
:100B00005242FFF7A3BEFFF792BE0000064C074D0E
:100B100006E0E06840F0010394E8070098471034CD
:100B2000AC42F6D3FFF7E6FA98560008B85600082C
:100B3000C0B24FF4F05100F0E9B900002DE9FF4FC9
:100B4000087883B09946FF2805D0491C2D2804D089
:100B50000024002008E000200BE00124F9E700EB6E
:100B6000800003EB4000491C0B78FF2BF7D104B148
:100B7000404200230293147819461D462D2C01D0C3
:100B80002B2C04D1521C2D2C13D000240294AA46E5
:100B90001478FF2C0FD00A25A3FB057801FB0581F3
:100BA0004FF0000C03FB0C11521CE3194AEB01013E
:100BB000EEE70124EAE7814453EA010002D019F587
:100BC000C87F06DA03980021C0E9001107B0BDE82C
:100BD000F08F0025AE4E2F46DFF8B882184600F0A1
:100BE000A9F9CDE90001B9F1000002DAC9F1000468
:100BF00000E004460023A74A1AEB030B42EB045A19
:100C000012E0E00707D02A46334638464146FFF750
:100C1000FAFB074688462A46334610461946FFF730
:100C2000F2FB05460E466410002CEAD1DDE9000116
:100C3000B9F1000F5A46534606DAFFF756FC3A461A
:100C40004346FFF752FC05E0FFF7DDFB3A4643461B
:100C5000FFF7D9FB029A0AB181F00041039AC2E979
:100C60000001B3E72DE9FF4F1F468DB0D7E90146DC
:100C70004FF0FF382E2045464FF000090B90B96920
:100C80006D1C0E988847396A824688470028F6D13D
:100C9000BAF1FF3F0AD024F4D064002E11DDBAF17E
:100CA0002B0F08D0BAF12D0F0BD102E0404611B046
:100CB0008DE744F48064B9696D1C0E9888478246BC
:100CC000761E6946600501D52D2000E02B208DF8A9
:100CD000000001F1010B0DF1200809E0B9696D1C5C
:100CE0000E98884782460F9844F40074761E05607B
:100CF000002E02DDBAF1300FF0D00B998A453ED1BB
:100D000044F0800406E00F99681CA9F1010944F43D
:100D100000740860B9696D1C761E0E98884782467B
:100D20003028F0D02BE00B998A4505D1200603D45A
:100D300044F08004761E18E0504601F0BFFF08B36F
:100D40000DF11301761E44F400748B4508D2AAF10C
:100D500030000BF8010B200607D5A9F1010003E0D4
:100D6000200602D409F101008146A00502D50F99A1
:100D7000681C0860B9696D1C0E9888478246002E71
:100D8000D1DC53E0002E51DDBAF1650F02D0BAF18B
:100D9000450F4BD1A00549D5B9696D1C24F44074A9
:100DA000761E0E9888478246002E0CDD2B2804D034
:100DB000BAF12D0F07D144F48074B9696D1C0E98F7
:100DC00088478246761EE00501D52D2100E02B21C3
:100DD00008F8011BCDF82C8021E00DF12901761EC9
:100DE00044F4007488450CD2AAF1300010F0FF00E2
:100DF00088F8000002D10B99884509D908F101084B
:100E000006E0E00501D5244801E042F20F7081467A
:100E1000B9696D1C0E98884782460F980560002EB0
:100E200004DD504601F04AFF0028D6D1F9690E983A
:100E30008847FF208BF8000088F80000002006900B
:100E400007904B466A4608A906A8FFF777FEA0055B
:100E500002D46FF001002AE714F0240F0AD0E00753
:100E600014D1DDE906123868031D3B600068C0E953
:100E700000120BE0DDE90601FFF762FC0146E00726
:100E800004D13868021D3A600068016028460EE708
:100E9000000014400000F03FF1D8FFFF426842B16B
:100EA000016811F8013B23B1521EC0E90012184637
:100EB00070470121C160881E704742685AB1C368FB
:100EC000016843B983688B4205D0491E521CC0E9B2
:100ED0000012002070474FF0FF30704770B521F0CE
:100EE000004303430CD0C1F30A550024D5EB04059D
:100EF00064EB0403D617AD1AB34102DB00200146B0
:100F000070BD201841EB025170BD00007F2801D94F
:100F1000002208E0064A02EB5002C007127800D116
:100F2000120902F00F0201209040084070470000B3
:100F3000585600080EB540F2334202920022CDE925
:100F400000221346FFF738FD03B000BD21B18268CF
:100F500042F00102826003E0826822F001028260B6
:100F60007047000010B504461248844208D10121A0
:100F7000401500F0E5FF0021601500F0E1FF17E0EB
:100F80000D48844208D10121001500F0D9FF00214D
:100F9000201500F0D5FF0BE00848844208D101215C
:100FA000C80300F0CDFF00214FF4004000F0C8FF5F
:100FB00010BD00000024014000280140003C014019
:100FC000014600208A6802F004020AB1012000E014
:100FD000002070470146C86C80B27047024600206E
:100FE00013680B400BB1012000E000207047014660
:100FF00000208A6802F008020AB1012000E0002007
:101000007047000030B502460020002350680F4CA6
:1010100020400D790C6844EA052420435060906814
:101020000B4C2040D1E902542C434D7944EA45044D
:1010300020439060D06A20F470000C7C641EE4B2FF
:10104000234340EA0350D06230BD0000FFFEF0FFB2
:10105000FDF7F1FFF0B504460D4600200021092DF3
:1010600011DDE068A5F10A0606EB4607072606FA39
:1010700007F18843A5F10A0606EB460603FA06F1D6
:101080000843E0600CE0206905EB4507072606FAF7
:1010900007F1884305EB450603FA06F10843206192
:1010A000072A0FDA606B561E06EB86071F2606FA24
:1010B00007F18843561E06EB860605FA06F108433B
:1010C000606322E00D2A0FDA206BD61F06EB86073D
:1010D0001F2606FA07F18843D61F06EB860605FA97
:1010E00006F10843206310E0E06AA2F10D0606EB6A
:1010F00086071F2606FA07F18843A2F10D0606EBC4
:10110000860605FA06F10843E062F0BD816841F009
:1011100008018160704721B1826842F4A0028260B8
:1011200003E0826822F4A00282607047816841F087
:1011300004018160704700002DE9FF470020374916
:101140000860374908603749086082462DE0364913
:10115000087802F083F90446304801682046FEF71B
:10116000E3FF2E4908603149087802F077F9044618
:101170002B4801682046FEF7D7FF294908602C4814
:1011800000682C4988420BD02949087802F066F99A
:101190000446244801682046FEF7C6FF214908603E
:1011A000012003F0ADF80AF1010ABAF57A7FCEDB2F
:1011B00021491A480068FFF741F8184908601E499C
:1011C00017480068FFF73AF81549086018480068A2
:1011D0001849884206D0184912480068FFF72EF8CF
:1011E000104908600F480068FFF766FA04460D468C
:1011F0000B480068FFF760FA06460F46074800688C
:10120000FFF75AFA804642460B460CA0CDE900672C
:10121000CDE9024501F0A6FBBDE8FF87B80000203C
:10122000BC000020C0000020A0000020A40000207E
:10123000A8000020C7CFFFFF00007A446F666673E6
:1012400065745F69613A252E34662C6F6666736536
:10125000745F69623A252E34662C6F666673657416
:101260005F69633A252E34662E0D0A002DE9F84F8A
:101270004FF4805000F0D8F8012867D1000300F047
:10128000CDF84FF48051324800F0DAFA0446002CD1
:101290005AD030480078002856D101202E490870D5
:1012A0002E48D0F800902E480068FFF78DF90646CA
:1012B0002A480068FFF788F907463146FEF7BEFF67
:1012C00005460021FFF762FA18D825480068FFF7A5
:1012D0007BF9834621480068FFF776F9594600906C
:1012E000FEF7ACFF8246FFF7E7F9054600221D4BEB
:1012F000FEF7E2FF0746FFF7A7F917E01848006876
:10130000FFF762F9834615480068FFF75DF9594613
:101310000090FEF793FF8246FFF7CEF907460022C2
:10132000104BFFF76AF80546FFF78EF90C4909687C
:1013300048430A49086008460068A0EB09000A49CA
:10134000096808440849086002480470BDE8F88F3D
:1013500000080140DA000020DB000020D00000205F
:10136000380000200000E03FEC00002070B5402075
:1013700000F05AF8012820D1402000F04FF8402119
:10138000214800F05DFA054620480078854214D0D7
:101390001E4800781E490978884201D1012001E0E9
:1013A0004FF0FF301B49096808441A49086001F0F2
:1013B0008DFC1949086015480570802000F034F84C
:1013C000012820D1802000F029F880210E4800F06B
:1013D00037FA04460E480078844214D00B4800784F
:1013E0000B490978884201D0012001E04FF0FF301D
:1013F0000849096808440749086001F067FC064984
:1014000008600348047070BD000C0140D800002043
:10141000D9000020D0000020D4000020014908603D
:101420007047000014040140014600200022074BD1
:101430001B6803EA0102054B14331B680B4013B110
:101440000AB1012000E000207047000000040140C4
:10145000002123498279002A3AD00A46126803689B
:101460009A430B461A600A1D126803689A430B1DC3
:101470001A60027911440A6803681A430A60184A1C
:101480000832126803689A43154B08331A601A1D14
:10149000126803689A43124B0C331A604279102A7F
:1014A0000ED11A1F126803681A430D4B08331A60D5
:1014B0001A1D126803681A43094B0C331A600DE0B9
:1014C0000749427911440A6803681A430A6005E033
:1014D000027911440A6803689A430A607047000061
:1014E000000401401FB50121052000F019FD4FF453
:1014F0008050ADF80C0048208DF80F0001208DF8C9
:101500000E0003A90F4800F0C7F80C21002000F0DE
:10151000A3F84FF48050019000208DF808000820B7
:101520008DF8090001208DF80A0001A8FFF790FF4F
:1015300028208DF8000001208DF80300684600F097
:1015400087FB1FBD000801401FB50121092000F0E5
:10155000E7FCC020ADF80C0048208DF80F000120FA
:101560008DF80E0003A91A4800F096F80621012014
:1015700000F072F80721012000F06EF8C020019001
:1015800000208DF8080010208DF8090001208DF84A
:101590000A0001A8FFF75CFF17208DF8000001206A
:1015A0008DF80300684600F053FB002009490860ED
:1015B00001F08CFB084908600020084908600849D0
:1015C00008600849086001F081FB074908601FBDF9
:1015D000000C0140D0000020D4000020E4000020D6
:1015E000E8000020EC000020F000002008B50121F8
:1015F0001D2000F095FC0121144800F0D9F84FF4AB
:101600000050ADF8000010208DF8030001208DF887
:10161000020069460E4800F03FF84FF400510C48B4
:1016200000F017F94FF40070ADF8000010208DF8AD
:10163000030001208DF802006946064800F02CF8EE
:101640004FF40071034800F004F908BD00023000B7
:1016500000100140000C014030B500228B071C0F28
:101660000F2303FA04F20B4B8C1053F824309343EE
:10167000084C8D1044F8253023468C1053F8243044
:101680008C07240F00FA04F42343024C8D1044F815
:10169000253030BD080001402DE9F041024600250B
:1016A0000026002000230024002791F803C00CF03E
:1016B0000F0591F803C00CF0100CBCF1000F03D023
:1016C00091F802C04CEA050591F800C0BCF1000F8A
:1016D00031D0146800202BE04FF0010C0CFA00F31D
:1016E000B1F800C00CEA03069E4220D183004FF0FF
:1016F0000F0C0CFA03F7BC4305FA03FC4CEA040494
:1017000091F803C0BCF1280F06D14FF0010C0CFA80
:1017100000FCC2F814C00AE091F803C0BCF1480F05
:1017200005D14FF0010C0CFA00FCC2F810C0401CAF
:101730000828D1D31460B1F800C0BCF1FF0F34DD2C
:10174000546800202EE000F1080C4FF0010808FA60
:101750000CF3B1F800C00CEA03069E4221D18300CD
:101760004FF00F0C0CFA03F7BC4305FA03FC4CEAEC
:10177000040491F803C0BCF1280F05D100F1080C56
:1017800008FA0CF8C2F8148091F803C0BCF1480FB5
:1017900007D100F1080C4FF0010808FA0CF8C2F864
:1017A0001080401C0828CED35460BDE8F0810000B2
:1017B000F0B50A46002300240021002500F0004671
:1017C000B6F1004F02D11D4EF16901E01B4E716868
:1017D000C0F3034583B200F44016B6F5401F08D1AC
:1017E00021F07061154E766826F07066134F7E60AA
:1017F00012E000F48016B6F5801F06D1032606FA23
:1018000005F4A14341F0706106E0460D360103FA8C
:1018100006F6B14341F0706122B1460D360103FA7C
:1018200006F6314300F00046B6F1004F02D1034EF8
:10183000F16101E0014E7160F0BD00000000014067
:101840000246002093680B400BB1012000E000200D
:101850007047416170470161704700002DE9FF4FFB
:1018600087B00D4616469946284806602848C0F8B5
:1018700000902849149808602846FEF71DFF074687
:1018800088460798FEF718FF02460B46CDE902018D
:1018900000202149FEF729FE3A464346CDE90401DE
:1018A000FEF723FE8246FEF74BFF04461B4804600A
:1018B00084F000401A4908601A480460154803681B
:1018C000134802681148016817A001F04BF8154849
:1018D0000068FEF7F1FE0746884611480068FEF7EB
:1018E000EBFECDE904010D480068FEF7E5FE8246F7
:1018F0000B46CDE90278DDE904015246CDE900014D
:1019000011A001F02FF80BB0BDE8F08FA00000206F
:10191000A4000020A80000200000F03FAC00002040
:10192000B0000020B400002070696E413A256420A8
:10193000202C70696E423A256420202C70696E4319
:101940003A25640D0A0000006761696E5F613A25FF
:101950002E32662C6761696E5F623A252E32662CE4
:101960006761696E5F633A252E32662E0D0A0000AC
:1019700010B505480268054801680548006802F08E
:1019800021FCFFF7D9FB10BDA8000020A400002017
:10199000A000002010B50E480E49086000204860E5
:1019A00001F094F90B49886009480B490860002050
:1019B000486001F08BF908498860054807490860CC
:1019C0000020486001F082F90449886010BD0000E1
:1019D0000AD7A33C8802002094020020A002002025
:1019E0002DE9F84F04460D4601F070F98046A168D4
:1019F000A8EB0100FEF7F1FD82461B49FEF7ECFB68
:101A00008146C4F8088000214846FEF7B5FE02D2A0
:101A1000DFF8589008E016494846FEF7B7FE03D2B3
:101A200065602846BDE8F88F49462068FEF77CFBD4
:101A3000824651462068FEF701FC064631464FF0CB
:101A40007E50FEF7C3FB83462946FEF7C5FB824660
:101A500030466168FEF7C0FB51460090FEF764FB1C
:101A6000074667603846DDE7BD3786356F12833A33
:101A70009A99993E10B5002020490880012048809D
:101A80000820888000201E49088001204880082006
:101A9000888002201B49088001204880102088800F
:101AA0000220194908800120488008208880FFF71B
:101AB0004BFD01201549087008460078012801D126
:101AC000FFF710FD4FF47A601149086011A000F093
:101AD00049FF0A2002F014FC02F064FE104908607D
:101AE00000201049086010490860052002F008FC39
:101AF00002F09AFC0D49086010BD00002000002093
:101B000026000020320000202C000020DC000020F5
:101B1000380000204D315F41425A0D0A000000009C
:101B2000400000203C00002048000020440000202D
:101B300010B517A000F016FF184801681848006893
:101B4000FEF724FE03D215480068154908601348C3
:101B50000068144908611148006813490861134876
:101B6000007820B90D4800681149086103E0114868
:101B700000680F49086110480068104908614FF477
:101B800000710F48FFF767FE0EA000F0EBFE10BDDE
:101B90004D4F543A20496E69740D0A0088000020A8
:101BA0008C000020F80100201C020020740000209E
:101BB000400200209C0000209800002064020020C9
:101BC000000C01404D4F543A20456E61626C652017
:101BD0006472697665722E0D0A00000070B50446C5
:101BE0000D4600212046FEF7C7FD03D011480460D2
:101BF0001148056001F0B0FD02F016FC0F490860C5
:101C0000322002F07DFB03F06FFA0D4908600520D9
:101C100002F076FB03F050FA0A4908600A4800789F
:101C2000022803D10846006808490860C82002F06D
:101C300067FB70BD7C000020800000204400002075
:101C4000540000204C00002075000020CC00002033
:101C500070B5002100230F22C47804B3154C24680A
:101C600004F4E064C4F5E064210AC1F10403CA404D
:101C7000447804FA03F184781440214309010E4C9E
:101C80000678A155047804F01F050124AC400578BE
:101C90006D11AD0005F1E025C5F8004109E00478BB
:101CA00004F01F050124AC40044D0678761145F878
:101CB000264070BD0CED00E000E400E080E100E0B3
:101CC00010B54FF07C501D490860002048608860C6
:101CD000C86048618861C86100F0F8FF1749086270
:101CE000174818490860002048608860C86048614B
:101CF0008861C86100F0EAFF124908624FF07C5029
:101D000011490860002048608860C86048618861A7
:101D1000C86100F0DBFF0C4908624FF07C500B49B2
:101D20000860002048608860C86048618861C861B8
:101D300000F0CCFF0549086210BD00004002002001
:101D40000000A04164020020F80100201C020020D5
:101D50002DE9F04F85B004460F4600F0B7FF8146ED
:101D6000216AA9EB0100FEF738FC54490390FEF705
:101D700033FA8246C4F8209000215046FEF7FCFC5E
:101D800009D95046FEF798FC00224D4BCDE90201DF
:101D9000FEF7BEFC01D2DFF82CA139462068FEF721
:101DA0001BFA049038466169FEF7BEF9029051466D
:101DB0006068FEF711FA4FF07C510090FEF70CFAC4
:101DC00001900299FEF708FA0390E169FEF7ACF979
:101DD0000546206980F0004029460390FEF7D6FCB6
:101DE00003D2206980F0004007E028462169FEF711
:101DF000CDFC01D2206900E02846054638466169DD
:101E0000FEF7E4F90290A168FEF7E6F95146039067
:101E1000FEF714FA834629460498FEF785F95946D9
:101E20000390FEF781F90646206980F000403146B4
:101E30000390FEF7ABFC03D2206980F0004007E07E
:101E400030462169FEF7A2FC01D2206900E030464D
:101E500006460021E068FEF799FC28D23046A169C9
:101E6000FEF7B4F951460390FEF7E8F98046404684
:101E7000E168FEF78BFC09D25146E068FEF7ACF949
:101E80000390A169FEF750F9064610E0E06880F083
:101E9000004041460390FEF779FC08D25146E068C5
:101EA000FEF79AF90390A169FEF793F90646E561FA
:101EB000A6616761304605B0BDE8F08FBD37863555
:101EC0000000E03F6F12833A01460020034A506849
:101ED00020F440400843506070470000001002406A
:101EE00029B1064AD2690243044BDA6104E0034A8D
:101EF000D2698243014BDA61704700000010024052
:101F000029B1064A12690243044B1A6104E0034AEC
:101F100012698243014B1A617047000000100240B1
:101F200029B1064A92690243044B9A6104E0034ACC
:101F300092698243014B9A61704700000010024091
:101F400029B1064AD2680243044BDA6004E0034A2E
:101F5000D2688243014BDA607047000000100240F3
:101F600030B500210022002400232D4D6D6805F0BE
:101F70000C0121B1042905D0082923D105E0294D00
:101F8000056022E0274D05601FE0254D6D6805F4D2
:101F90007012234D6D6805F48034022505EB9242E2
:101FA0001CB9214D554305600BE01D4D6D6805F4CE
:101FB00000351DB11C4D5543056002E0194D5543D8
:101FC000056002E0174D056000BF00BF144D6D684D
:101FD00005F0F0010909154D6B5C0568DD404560B1
:101FE0000F4D6D6805F4E061090A104D6B5C4568A2
:101FF000DD4085600A4D6D6805F46051C90A0B4DDE
:102000006B5C4568DD40C560054D6D6805F4404179
:10201000890B074D6B5CC568B5FBF3F5056130BDF9
:102020000010024000127A0000093D00000000206C
:102030001000002010B500F001F810BD0CB5002014
:10204000019000903348006840F4803031490860C6
:1020500000BF3048006800F4003000900198401C38
:102060000190009818B90198B0F5A06FF1D12948F6
:10207000006800F4003010B10120009001E0002061
:1020800000900098012843D12348006840F01000D8
:10209000214908600846006820F0030008600846EF
:1020A000006840F0020008601A484068194948601A
:1020B0000846406848600846406840F480604860D0
:1020C0000846406820F47C1048600846406840F4A8
:1020D000E81048600846006840F08070086000BF63
:1020E0000C48006800F000700028F9D009484068EA
:1020F00020F00300074948600846406840F00200AD
:10210000486000BF0348406800F00C000828F9D17F
:102110000CBD000000100240002002400248006890
:10212000401C0149086070471400002010B5134896
:10213000006840F0010011490860084640681049F5
:1021400008400E494860084600680E4908400B499F
:1021500008600846006820F480200860084640684F
:1021600020F4FE0048604FF41F008860FFF762FF14
:102170004FF000600449086010BD000000100240EC
:102180000000FFF8FFFFF6FE08ED00E000B589B0A3
:1021900001210420FFF7C4FE01210846FFF7A0FE3D
:1021A0000720ADF8200018208DF8230003208DF8BB
:1021B000220008A92448FFF76FFA4FF0804000F092
:1021C0005DF80020ADF8140040F29F50ADF8180003
:1021D0002020ADF816000020ADF81A0005A94FF038
:1021E000804000F055FA6020ADF804000120ADF801
:1021F00006000020ADF80A00ADF80C0001A94FF070
:10220000804000F02FF901A94FF0804000F080F9E4
:1022100001A94FF0804000F0DBF90821C80600F06A
:102220006DF90821C80600F0C5F90821C80600F0BC
:102230001FFA0121880700F009F80121880700F042
:1022400011F809B000BD00000008014021B102886A
:1022500042F08002028004E002884FF67F731A4049
:102260000280704721B1028842F00102028004E03E
:1022700002884FF6FE731A400280704710B504467C
:102280006848844208D10121C014FFF759FE00219B
:10229000E014FFF755FEC4E0B4F1804F08D10121EE
:1022A0000846FFF72DFE00210120FFF729FEB8E0C8
:1022B0005D48844208D101210220FFF721FE002160
:1022C0000220FFF71DFEACE05848844208D10121EE
:1022D0000420FFF715FE00210420FFF711FEA0E007
:1022E0005348844208D101210820FFF709FE00214C
:1022F0000820FFF705FE94E04E48844208D10121F2
:102300001020FFF7FDFD00211020FFF7F9FD88E008
:102310004948844208D101212020FFF7F1FD002126
:102320002020FFF7EDFD7CE04448844208D10121E4
:102330004014FFF705FE00216014FFF701FE70E076
:102340003F48844209D10121C804FFF7F9FD00216B
:102350004FF40020FFF7F4FD63E03A48844209D1CE
:1023600001210805FFF7ECFD00214FF48010FFF775
:10237000E7FD56E03448844209D101214805FFF7C2
:10238000DFFD00214FF40010FFF7DAFD49E02F4890
:10239000844208D101214020FFF7B2FD00214020F6
:1023A000FFF7AEFD3DE02A48844208D1012180209C
:1023B000FFF7A6FD00218020FFF7A2FD31E02548B0
:1023C000844208D101218015FFF79AFD0021A01554
:1023D000FFF796FD25E02048844209D10121080439
:1023E000FFF7AEFD00214FF48030FFF7A9FD18E0A4
:1023F0001A48844209D101214804FFF7A1FD0021B8
:102400004FF40030FFF79CFD0BE01548844208D1E3
:1024100001218804FFF794FD00214FF48020FFF78D
:102420008FFD10BD002C014000040040000800405A
:10243000000C004000100040001400400034014037
:10244000004C014000500140005401400018004081
:10245000001C0040002000400040014000440140BA
:102460000048014070B5002400220023058C4FF67F
:10247000FE7635400584028C8388048B4FF68F7579
:102480002C40B51E2C400D882C43751E2A400D890A
:102490002A434D882A43144DA8420BD0134DA8421D
:1024A00008D0134DA84205D0124DA84202D0124DBB
:1024B000A84213D14FF6F7752A404D892A434FF6AB
:1024C000FB752A408D882A434FF6FF652B404FF657
:1024D000FF552B408D892B43CD892B43838004836B
:1024E000CD888586028470BD002C014000340140F7
:1024F0000040014000440140004801400A460021DC
:10250000018B4FF6F77319401143018370470000A8
:1025100070B5002400220023058C4FF6EF7635407D
:102520000584028C8388048B48F6FF752C404FF697
:10253000FF452C400D884FF6FF7606EA05252C4313
:102540004FF6DF752A400D8906EA05152A434D88A6
:1025500006EA05152A43154DA84202D0144DA8429B
:102560001DD14FF67F752A404D894FF6FF7606EA5A
:1025700005152A434FF6BF752A408D8806EA0515D2
:102580002A434FF6FF352B404FF2FF752B408D89C4
:1025900006EA85052B43CD8906EA85052B43838012
:1025A0000483CD880587028470BD0000002C0140A3
:1025B000003401400A460021018B4FF2FF7319409D
:1025C0004FF6FF7303EA02231943018370470000AB
:1025D00070B5002400220023058C4FF6FF663540BD
:1025E0000584028C8388848B4FF68F752C404FF6C0
:1025F000FC752C400D882C434FF6FF552A400D8961
:102600004FF6FF7606EA05252A434D8806EA05259A
:102610002A43154DA84202D0144DA8421DD14FF2B5
:10262000FF752A404D894FF6FF7606EA05252A43B5
:102630004FF6FF352A408D8806EA05252A434EF6D7
:10264000FF752B404DF6FF752B408D8906EA051569
:102650002B43CD8906EA05152B4383808483CD88DF
:102660008587028470BD0000002C014000340140C9
:102670000A460021818B4FF6F7731940114381837D
:1026800070478186704701877047818770470000D7
:10269000002202881D4B98420ED01D4B98420BD051
:1026A000B0F1804F08D01B4B984205D01A4B98428E
:1026B00002D01A4B984204D14FF68F731A404B88C0
:1026C0001A43174B984207D0164B984204D04FF646
:1026D000FF431A40CB881A4302808B8883850B887E
:1026E00003850A4B98420BD0094B984208D00E4BF9
:1026F000984205D00D4B984202D00D4B984201D123
:102700000B7A03860123838270470000002C01406E
:10271000003401400004004000080040000C00406C
:1027200000100040001400400040014000440140FF
:102730000048014010B540F22551204800F050F803
:1027400000283AD01D4800F007F9C4B21C480088A0
:1027500000F40040F8B91A48008800F4804090B1B5
:102760000A2C03D000201649088026E0144800886F
:1027700040F400401249088000200988C1F30D018F
:10278000104A505419E00D2C06D10D48008840F431
:1027900080400B49088010E009480088C0F30D0014
:1027A00008490C5406480088401C05490880084622
:1027B0000088FF2801DD0020088010BD003801409E
:1027C0001C000020F800002021B1828942F4005250
:1027D000828104E082894DF6FF731A40828170473E
:1027E00070B50246002400230025002040F66A163A
:1027F000B14200D100BFC1F3421501F01F03012611
:1028000006FA03F3012D02D19689334006E0022D2A
:1028100002D1168A334001E0968A33400C12012619
:1028200006FA04F41688344013B10CB1012000E01C
:10283000002070BDF0B503460024002600250020CE
:1028400040F66A17B94200D100BF1846C1F34214DE
:1028500001F01F06012707FA06F5012C01D10C3003
:1028600004E0022C01D1103000E014301AB10768E6
:102870002F43076002E00768AF430760F0BD000028
:102880002DE9F04786B005460E460024A24600BF5B
:10289000A1460027B08900B100BF2F462C8A4CF614
:1028A000FF700440F08804432C82AC894EF6F3108C
:1028B0000440B08831890843718908430443AC81DE
:1028C000AC8A4FF6FF400440B0890443AC8201A8B3
:1028D000FFF746FB1F48874202D1DDF810A001E058
:1028E000DDF80CA0A88900F4004040B10AEBCA0052
:1028F00000EB0A1031684900B0FBF1F807E00AEB81
:10290000CA0000EB0A1031688900B0FBF1F86420BE
:10291000B8FBF0F004012009642101FB1089A889AB
:1029200000F4004040B1322000EBC900B0FBF1F0F0
:1029300000F00700044308E0322000EB0910642196
:10294000B0FBF1F000F00F0004432C8106B0BDE8AD
:10295000F08700000038014001468888C0F3080075
:10296000704700000FB4054B10B503A9044A029844
:1029700000F0F0F910BC5DF814FB00000D440008F5
:1029800018000020490050EAC12018BF04204A0D59
:1029900018BF40F0010040F2FF72B2EB515F08BF78
:1029A00040F00200012808BF052070472DE9F041E2
:1029B0004F1E00EBC7010446D1E9000115461E4633
:1029C00037F006020DD02A463346FDF71CFD7F1E68
:1029D00004EBC703D3E90023FDF76EFC37F00602D2
:1029E000F1D1022F25D0042F13D0062F18BFBDE838
:1029F000F0812A463346FDF706FDD4E90A23FDF7A8
:102A00005BFC2A463346FDF7FEFCD4E90823FDF7BC
:102A100053FC2A463346FDF7F6FCD4E90623FDF7BE
:102A20004BFC2A463346FDF7EEFCD4E90423FDF7C0
:102A300043FC2A463346FDF7E6FCD4E90223FDF7C2
:102A40003BFC2A463346FDF7DEFCD4E90023BDE813
:102A5000F041FDF731BC0122FEF740BAFDF72CBC76
:102A60000022134610461146FDF73FBD024A0020E2
:102A70001107FEF733BA000001FDFFFF01480068AF
:102A800070470000F400002002E008C8121F08C1CF
:102A9000002AFAD170477047002001E001C1121FDF
:102AA000002AFBD170470000014908607047000010
:102AB000F40000202DE9F04706463046FDF7FCFD06
:102AC0000746134A134BFDF7F7FB0446FDF738FEA4
:102AD00081464846FDF7F0FD07460F4A0F4BFDF7CC
:102AE00017FE08D24846FDF7E7FD07460A4A0B4B9A
:102AF000FDF783FC02E04846FDF7DEFD0446FDF7E6
:102B00001FFE8146484600F0CBFCBDE8F087000080
:102B1000F4D64354FB21F93FEA2E4454FB211940DB
:102B200070B504460D462846FDF74EFD0646214683
:102B3000FDF752FB70BD00002DE9FF5F82B0002160
:102B4000DDE90430020DDDF840B0034318D044F64F
:102B50001050A2F2FF3242431514119801281FD0E1
:102B6000A5EB0B00401C5FEA000A4FF000064E4F39
:102B7000DFF83891B046504615D5CAF1000413E08D
:102B8000119801244AA3012801D16FEA0B01029890
:102B9000119AC0E90031C0E9024206B0BDE8F09FD9
:102BA000CBF10000DFE704460021404A491842EB20
:102BB0000450CDE9001012E0E00707D032463B4652
:102BC00040464946FDF71FFC8046894632463B4653
:102BD00010461946FDF717FC06460F466410002CF8
:102BE000EAD1DDE90401DDE90023BAF1000F06DADC
:102BF000FDF709FC42464B46FDF705FC05E0FDF7F5
:102C000074FC42464B46FDF770FC04460E4600221B
:102C1000284BFDF77DFD03D84FF0FF30014607E05C
:102C20000022254B20463146FDF746FBFDF755FFB8
:102C3000102409E0002C0ADB0A220023FDF7C6FD60
:102C4000039B30321A55641E50EA0102F2D1641C13
:102C5000039AC4F111031444119A012A03D00122EA
:102C600008430DD10AE0084304D000204FF0110BB7
:102C7000119072E7A3EB0B056D1E0DE05B4504DDC3
:102C80004FF0000205F1010504E003DA4FF0000205
:102C9000A5F10105002AECD002981199C0E9023192
:102CA000C0E9004579E70000000014400000F03F53
:102CB000300000000000F0430000E03F30380A28F8
:102CC00001D20120704700207047000000BF0A4871
:102CD00001684FF0E0208269074800688142F6D120
:102CE0000648801A4823B0FBF3F001EB4103C3EB25
:102CF000C11300EBC300704714000020401901000D
:102D00002DE9F04706463046FDF7D6FC07460F4A48
:102D10000F4B01F031FB0446FDF712FD8146002107
:102D20004846FDF733FD03D84846FDF7C5FC07E0EC
:102D30004846FDF7C1FC0746044A054BFDF7BCFABF
:102D40000446FDF7FDFCBDE8F0870000EA2E445480
:102D5000FB2119402DE9FF4F95B09A46884606465B
:102D60000025EEE1252877D100242746F94A0121E4
:102D7000039400E0044316F8013F203B01FA03F0FE
:102D80001042F7D130782A2811D06FF02F03307815
:102D9000A0F13002092A16D8039A44F0020402EB8B
:102DA000820203EB42021044761C0390EFE758F8CE
:102DB000042B0392002A03DA504244F40054039097
:102DC00044F00204761C30782E2816D116F8010F34
:102DD00044F004042A280DD06FF02F023078A0F1BF
:102DE0003003092B09D807EB870302EB4303C7180D
:102DF000761CF3E758F8047B761C30786C280FD0EB
:102E000006DC4C2817D068280DD06A2814D104E0BD
:102E1000742810D07A280FD10DE044F400140AE091
:102E200044F4801401E044F440147278824202D1E8
:102E300004F58014761C761C307866280BD013DCE1
:102E4000582877D009DC002875D04528F6D04628C8
:102E5000F4D047281AD193E118E0632835D06428CC
:102E600079D0652812D18BE1702873D008DC6728EF
:102E7000F1D069286FD06E280DD06F2806D1ACE054
:102E800073282CD0752874D0782853D052461799BF
:102E900090476D1C54E1C4F30250022809D0032866
:102EA0000DD0D8F8001004280DD00D6008F10408EA
:102EB00046E1D8F80010EA17C1E90052F6E7D8F861
:102EC00000100D80F2E70D70F0E718F8041B8DF884
:102ED000001000208DF80100EB46012003E058F8B7
:102EE00004BB4FF0FF3061074FF0000102D40DE04A
:102EF00009F101018946B9420FDA8145F8DB1BF877
:102F000009100029F4D108E009F101018946814244
:102F1000FADB1BF809100029F6D103985346A0EB01
:102F2000090721463846179A00F080FA284400EB3A
:102F3000090507E044E008E10DE01BF8010B5246EB
:102F400017999047B9F10109F7D2534621463846FF
:102F5000179AF2E039E00A21C4F302524FF0000B55
:102F60000091022A06D058F8040BC117032A09D091
:102F70000AE023E008F1070020F00702F2E802016E
:102F8000904605E000B2C117042A01D140B2C11732
:102F9000002906DA0A460021404261EB02012D2297
:102FA00002E0220504D52B228DF80420012203E043
:102FB000E20701D02022F7E7914657E00A2100E01E
:102FC00010214FF0000B00910BE010214FF0000B8F
:102FD00044F004040827009103E008204FF0000BA0
:102FE0000090C4F30252022A05D058F8040B0021C5
:102FF000032A08D008E008F1070020F00702F2E8F1
:103000000201904603E080B2042A00D1C0B24FF022
:10301000000922072AD53278702A07D0DDF800C0CF
:103020008CF0100C5CEA0B0C05D00EE040228DF801
:103030000420012208E050EA010306D030238DF875
:1030400004308DF8052002229146009B83F008038E
:1030500053EA0B030AD150EA010201D1620705D5F8
:1030600030228DF804204FF001097F1E3278582A53
:1030700004D039A20C920CAA02920BE03BA2F9E711
:103080005B46009AFDF7A2FB0C9B9B5C029A521ECA
:103090000292137050EA0102F2D1029804A9081AB0
:1030A00000F1200B600702D524F4803400E00127F2
:1030B0005F4502DDA7EB0B0000E0002000EB0B01F9
:1030C000009003984944401A0390E00306D4534605
:1030D0002146179A039800F0A9F90544002706E055
:1030E00001A85246C05D179990476D1C7F1C4F4543
:1030F000F6DBE0030CD553462146179A039800F0FF
:1031000095F9054404E030205246179990476D1C0C
:103110000099481E00900029F5DC08E00298029909
:1031200052460078491C0291179990476D1CBBF1DB
:103130000001ABF1010BF1DC5BE100F065F9054446
:10314000761C307800287FF40DAE19B02846BDE813
:10315000F08F000009280100303132333435363722
:1031600038396162636465660000000030313233D3
:103170003435363738394142434445460000000073
:10318000600700D4062708F1070020F00700F0E8E8
:103190000223804603F0004C5FEA0C0001D097A0A8
:1031A00009E0200501D596A005E0E00701D095A033
:1031B00001E0AFF24C001390307823F00043652813
:1031C0000CD006DC452809D046281DD047287FD1E1
:1031D0003BE0662818D067287AD136E00021112F0D
:1031E00001DB112000E0781CCDE9000104A90CA846
:1031F000FFF7A2FCDDE90D010C9A4FF0000B07F17F
:103200000109109200914EE04FF000400097CDE987
:10321000011004A90CA8FFF78FFCDDE90D020C9B3F
:103220000F994FF0000B91461093009211B9791C41
:1032300000EB0109B7EB090003D4C0F1FF3B07F134
:103240000109A9EB0700019042E0012F00DA0127F4
:103250000021112F01DD112000E03846CDE90001E9
:1032600004A90CA8FFF768FCDDE90D010C9A009198
:103270004FF0000BB946109221070FD4009A4A452F
:1032800003DA914601E0A9F10109B9F1010F05DD69
:10329000109AA9F10101515C3029F4D0B84202DA48
:1032A00010F1040F03DA0121CDE9011010E000282C
:1032B00003DC8344A9EB000102E0411C494500DD29
:1032C0008946A0EB0B00401C01904FF0004002909B
:1032D000200705D40198484502DB4FF0FF300190EC
:1032E00000208DF84B0002980DF14B07B0F1004F14
:1032F00025D002200C902B200D90029800280CDA8B
:10330000404202902D200D9007E00A210298FDF71F
:1033100047FA3031029007F8011D0C99481E0C90B5
:103320000029F2DC02980028EFD1791E0D98087070
:10333000307800F0200040F0450007F8020D11A899
:10334000C01BC01D02901398007800B1012000EB53
:103350000901019801EBE071029801440398401AB9
:10336000401E0390E00306D453462146179A039863
:1033700000F05CF805441398007818B1524617998C
:1033800090476D1CE00323D553462146179A0398B6
:1033900000F04CF805441BE0BBF1000F07DB009880
:1033A000584504DD1098179910F80B0001E01799A3
:1033B00030205246904701980BF1010B401E05F159
:1033C0000105019004D12E205246179990476D1C9B
:1033D000B9F10001A9F10109DEDC05E017F8010BE4
:1033E0005246179990476D1C0299481E0290002979
:1033F000F4DC53462146179A03989EE62D00000000
:103400002B000000200000002DE9F04104460025BB
:103410001E461746880404D405E039462020B047EC
:103420006D1C641EF9D52846BDE8F0812DE9F041F8
:10343000044600251E469046C80301D5302700E00B
:103440002027880404D505E041463846B0476D1C66
:10345000641EF9D52846BDE8F08100002DE9F84F3B
:103460008246504600F066FB00900098FDF7B5F8E4
:103470008346FDF721F980464FF06632064BFCF794
:10348000C2FF06460022054BFDF72FF80446FDF764
:1034900057F9BDE8F88F000066660A400000B040AA
:1034A0002DE9FF5F83465846FDF706F90446954A25
:1034B000954BFDF715F944D25846FDF7FDF8934AB0
:1034C000934BCDE90201FCF79EFF80460022134694
:1034D000FDF71EF912D85846FDF7EEF880468B4AE4
:1034E0008B4BFCF790FF00228A4BCDE90001FCF7E3
:1034F000E3FECDE90201FDF7A7F811E05846FDF71C
:10350000DBF8824A824BCDE90001FCF77CFF002208
:10351000804BCDE90201FCF770FF8046FDF794F87F
:103520007D4951F820A05046FDF75CF806467B4ADD
:103530007B4BFCF768FF0446FDF702F904B0BDE8D9
:10354000F09F5846FDF7B8F80446764A764BFDF7EB
:10355000C7F844D25846FDF7AFF86C4A6C4BCDE93A
:103560000201FCF750FF804600221346FDF7D0F819
:1035700012D85846FDF7A0F8644A654BCDE9000122
:10358000FCF741FF0022634BCDE90201FCF794FEFA
:103590008046FDF759F811E05846FDF78DF85B4A73
:1035A0005B4BCDE90001FCF72EFF0022594BCDE922
:1035B0000201FCF722FF8046FDF746F8C0F5C77010
:1035C000554951F820A05046FDF70CF80646534ADD
:1035D000534BFCF718FF0446FDF7B2F8AEE7584628
:1035E000FDF76AF80446514A514BFDF779F844D289
:1035F0005846FDF761F8454A454BCDE90201FCF715
:1036000002FF804600221346FDF782F812D8584682
:10361000FDF752F83D4A3E4BCDE90001FCF7F3FEC1
:10362000804600223B4BFCF747FECDE90201FDF747
:103630000BF811E05846FDF73FF8344A344BCDE91A
:103640000001FCF7E0FE80460022324BFCF7D5FE7D
:10365000CDE90201FCF7F8FFA0F5C7702E4951F83B
:1036600020A05046FCF7BEFF06462C4A314BFCF723
:10367000CAFE0446FDF764F860E75846FDF71CF8FB
:103680008046224A224BFCF7BEFE00221346CDE9BB
:103690000201FDF73DF812D85846FDF70DF81B4A18
:1036A0001B4BCDE90001FCF7AEFE80460022194B12
:1036B000FCF702FECDE90201FCF7C6FF11E0584617
:1036C000FCF7FAFF8046114A114BFCF79CFE0022E2
:1036D000104BCDE90001FCF790FECDE90201FCF7AB
:1036E000B3FFC0F547700C4951F820A05046FCF7D5
:1036F00079FF0646094A0F4BFCF785FE0446FDF7A5
:103700001FF81BE7F4D64354FB21F93F9CA223B9D1
:10371000FCAB5F400000E03F985200082D431CEBDB
:10372000E2361A3FEA2E4454FB210940320D337F22
:103730007CD91240E2361ABF70B5044625462E46A3
:103740000448A0EB6606354629462046FCF744FDB2
:1037500070BD0000865A375F2DE9F04F87B09AA000
:10376000FFF700F99E48006800287DD1002421E081
:103770002046FCF737FF9B4A9B4BCDE90001FCF745
:1037800042FE06460022994BFCF7AFFE984A994B41
:10379000CDE90201FCF790FD8146FCF7D1FF8046A0
:1037A000424600219448006801F092FA022000F09D
:1037B000A7FD641CB4F5FA7FDADD00F035FE059054
:1037C0004FF4FA7421E02046FCF70CFF8146854A4D
:1037D000854BFCF718FE0022844BCDE90001FCF775
:1037E00084FE0646824A834BFCF766FDCDE9020162
:1037F000FCF7A6FF8046424600217F48006801F0A2
:1038000067FA022000F07CFD641E002CDBDA00F079
:103810000BFE049000221146104601F059FAC82010
:1038200000F06EFD0598FCF747FF064632460B4652
:1038300072A0FFF797F80498FCF73EFF0646324661
:103840000B4673A0FFF78EF8DDE90410FCF7BEFC11
:103850008146FCF731FF21F000410646FCF770FF7E
:103860000546DDE9041000E067E0FCF785FF08D0BD
:103870002846FCF721FF06466A4A6B4BFCF730FFEF
:103880000BD26AA0FFF76EF84FF400717248FDF793
:10389000E0FF002007B0BDE8F08FDDE90410FCF781
:1038A0006BFF07D26DA0FFF75DF84FF0FF304C497A
:1038B000086005E071A0FFF755F80120484908604D
:1038C00075A0FFF74FF878480068FCF77DFE2946A1
:1038D0000390FCF781FC8346FCF7EEFE0646414A66
:1038E000414BFCF78AFD21F00041814600226F4BDD
:1038F000FCF70EFF1DD26EA0FFF734F82846FCF748
:10390000DBFE81464A460B4636483749FCF7EDFD5B
:103910000022664BCDE90201FCF7CEFC0646FCF71F
:1039200093FE614908600846016867A0FFF71AF82E
:1039300006E067A0FFF716F802E067A0FFF712F8AD
:1039400000216B480068FCF717FF38D1694A002155
:103950002948006801F0BCF94FF42F7000F0D0FC4A
:1039600000F062FD81461E480068FCF72DFE82468D
:103970004946FCF731FC07464B4801683846FFF7DB
:10398000CFF80646FFF7BCF959490860142000F04B
:10399000B7FC59A0FEF7E6FF55480068FCF78CFE1F
:1039A000064632460B465AA0FEF7DCFF00221146BF
:1039B000104601F08DF9C82000F0A2FC02E056A0EC
:1039C000FEF7D0FF012065E74D4F543A20416C6966
:1039D000676E2073656E736F722E0D0A0000000013
:1039E00080000020EA2E4454FB21194000407F4013
:1039F000320D337F7CD912408C0000206D69645FEA
:103A0000616E676C653D252E34660D0A000000006E
:103A1000656E645F616E676C653D252E34660D0AC8
:103A2000000000007B14AE47E17A843F4D4F543ACA
:103A3000204661696C656420746F206E6F746963E1
:103A400065206D6F76656D656E74206C6F6F70327A
:103A500032322E0D0A000000000C01404D4F543A46
:103A60002073656E736F725F646972656374696FEA
:103A70006E3D3D4343570D0A000000004D4F543A40
:103A80002073656E736F725F646972656374696FCA
:103A90006E3D3D43570D0A004D4F543A2050502083
:103AA000636865636B3A2000900000200000E03FEF
:103AB0006661696C202D20657374696D617465643D
:103AC0002070703A0000000025640D0A000000001C
:103AD0004F4B210D0A0000004D4F543A20536B69A3
:103AE00070206469722063616C69622E0D0A0000A7
:103AF0007C000020E4CB96404D4F543A205A65722A
:103B00006F20656C65632E20616E676C653A0000FE
:103B1000252E34660D0A00004D4F543A20536B6930
:103B200070206F66667365742063616C69622E0D28
:103B30000A00000010B5044602230122214609486C
:103B4000FDF788FA01210748FDF7E5FA00BF0221D9
:103B50000448FDF743FA0028F9D00248FDF73AFA85
:103B600010BD0000002401402DE9F84F0446FFF786
:103B7000ADF881463F490968A9EB0100FCF72DFD2E
:103B800005463D49FCF728FB82463A48C0F80090BC
:103B900000215046FCF7F0FD05D94FF07C5150460E
:103BA000FCF7F4FD01D2DFF8D4A051463448006898
:103BB000FCF712FB0090FCF77FFD05460E463148EE
:103BC00001682046FCF702FB0090FCF775FD21F030
:103BD000004107462A463346FCF79AFD33D229486E
:103BE00001682046FCF7F2FA00210090FCF7C4FDC2
:103BF00002D24FF0FF300CE0224801682046FCF76B
:103C0000E5FA00210090FCF7C1FD01D2012000E09F
:103C100000208046FCF7D8FC074619480168384662
:103C2000FCF7DAFA06465146FCF7D6FA054615487F
:103C300001682846FCF778FA1249086010480068C5
:103C40001149086004E00F48046000200E49086034
:103C50000E48D0F800B00E4801680A480068FEF728
:103C60005FFF05462A460021584601F031F85846C4
:103C7000BDE8F88F94000020BD3786356F12833A77
:103C8000980000204C0000205400002088000020F4
:103C9000900000202DE9F84F04460D4621F0004029
:103CA00000917349814211DC7249884201DC06D1DE
:103CB0002CB120462946BDE8F84FFEF7CCBE6E4831
:103CC000002DCCBF6D496E49BDE8F88F6D4981422A
:103CD00011DD6D498142D8BF4FF0FF366DDD2046C2
:103CE0002946FEF74FFE042808BFFEF7BFFE204618
:103CF0002946BDE8F88F6549654F25F000458142AA
:103D000033DD6449814219DD002632464FF080439D
:103D100020462946FCF7D0FA80468A4601222046F2
:103D20002946FDF7DBF800223B46FCF766FB4246DE
:103D30005346FCF7DAFB04460D463EE0012600221E
:103D4000BA463B4620462946FCF7B6FA80460F465F
:103D50000022534620462946FCF74FFB42463B468D
:103D6000FCF7C3FB04460D4627E04B4981421BDDAF
:103D7000DFF828A102260022534620462946FCF7F8
:103D800042FB00223B46FCF797FA80460F46002292
:103D9000534620462946FCF730FB42463B46FCF79B
:103DA000A4FB04460D4608E0032622462B460020CD
:103DB0003B49FCF79AFB04460D4622462B4610462B
:103DC0001946FCF720FB8B46824602460B46FCF761
:103DD0001AFB07460246334888460B4606217844BC
:103DE000FEF7E4FD52465B46FCF70DFB82462E488B
:103DF0008B463A46434605217844FEF7D7FD3A46BE
:103E00004346FCF700FB02460B46002E504659463F
:103E10000CDAFCF751FA22462B46FCF7F4FA01B013
:103E200022462B46BDE8F04FFCF7EABAFCF744FA0D
:103E300022462B46FCF7E7FA1C4A7A4402EBC603FB
:103E4000D3E90023FCF7D9FA22462B46FCF7D5FA32
:103E5000174A7A4402EBC603D3E90023FCF7D0FAF1
:103E6000009A002AB8BF81F00041BDE8F88F000039
:103E7000000010440000F07F182D4454FB21F93F4E
:103E8000FB21F9BF0000DC3F0000203E0000F33FB3
:103E90000000F03F0000E63F008003400000F83FD4
:103EA0000000F0BF3E180000FC1700009A17000049
:103EB000621700002DE9F04D9446CCF1000423F088
:103EC00000464CEA0404594F46EAD4749A468846A0
:103ED00021F00042BC4206D8454240EA050442EACD
:103EE000D474BC4204D9BDE8F04D6246FEF7B6BDBD
:103EF000AAF14055A5F17F6555EA0C040BD00224C8
:103F000004EAAA744A4DDFF82CE144EAD87452EA74
:103F1000000B04D00CE0BDE8F04DFFF7BBBE002C59
:103F200014BF012CBDE8F08D022C30D0032C32D010
:103F300056EA0C0B0AD0BE4220D1BA4209D126F073
:103F4000804622F080423346114617E000291ADBF2
:103F500025E0DFF8E4B0FB44002C04BFDBE90001FE
:103F6000BDE8F08D012C02BFDBE9000181F00041CA
:103F7000BDE8F08D022C0AD0032C0CD0BA4212D12D
:103F8000B8F1000F0BDA2A482C49BDE8F08D28461D
:103F90002B49BDE8F08D28467146BDE8F08D2448D8
:103FA0002849BDE8F08D921B12153C2AC4BF204F52
:103FB000244E10DCBAF1000FBEBF12F13C0F0027F7
:103FC0003E4608DB6246FCF790FA21F00041FFF71D
:103FD00061FE07460E4694B1012C08BF86F00046EC
:103FE0000DD0194A194B022C3846314615D0FCF732
:103FF00004FA2A46BDE8F04D114BFCF7FEB9002249
:10400000134638463146FCF76BFB04BF0220FEF72F
:104010004BFD38463146BDE8F08DFCF7EEF92A46F7
:10402000BDE8F04D064BFCF7EBB900000000F07F57
:10403000182D4454FB2109C0F6160000FB21F9BFDE
:10404000FB210940FB21F93F075C143326A6A13C64
:1040500030B583B00446FEF711FD05460020CDE9DA
:104060000000024621466846FCF72DFC2846FEF774
:104070001BFDDDE9000103B030BD000070B538481C
:10408000008800F40040002868D0364800785028A6
:104090003AD006DC41282CD0482807D0492859D1ED
:1040A00045E0542806D0562854D117E02EA0FEF73C
:1040B00059FC4FE02B48401CFFF7CAFF0446FCF7B1
:1040C0003FFB2D49086008460068FCF7F5FA0446F6
:1040D00022460B4629A0FEF745FC3BE02A48006833
:1040E000FCF7EAFA044622460B4628A0FEF73AFC03
:1040F00030E029480068FCF7DFFA044622460B4608
:1041000026A0FEF72FFC25E01648401CFFF7A0FF75
:104110000446FCF715FB244908600868FCF7CCFA54
:10412000044622460B4621A0FEF71CFC12E00D4877
:10413000401CFFF78DFF0446FCF702FB1A4948605C
:104140004868FCF7B9FA044622460B461AA0FEF767
:1041500009FC00BF00BF00200149088070BD0000BD
:104160001C000020F800002048656C6C6F20576F21
:10417000726C64210D0A0000CC000020543D252EF5
:1041800034660D0A000000005400002056656C3DA6
:10419000252E32660D0A00004C000020416E673D5E
:1041A000252E32660D0A000040020020503D252ECB
:1041B00034660D0A00000000493D252E34660D0AC4
:1041C0000000000070B586B005460C461646012179
:1041D0004FF40370FDF7A4FE4FF40040FDF774FEAA
:1041E000072D0CDC0120A84080B2ADF800000020B3
:1041F0008DF8030069463E48FDF74EFA0DE0A5F143
:1042000008000121814088B2ADF8000000208DF83F
:10421000030069463748FDF73FFA072C0CDC012004
:10422000A04080B2ADF8000000208DF80300694680
:104230002F48FDF731FA0DE0A4F10800012181407B
:1042400088B2ADF8000000208DF8030069462948C7
:10425000FDF722FA284886421CD0072C0CDC0120EE
:10426000A04080B2ADF8000000208DF80300694640
:104270001F48FDF711FA0DE0A4F10800012181406B
:1042800088B2ADF8000000208DF803006946194897
:10429000FDF702FA1948FCF765FE002001908DF841
:1042A00008008DF809004FF460200390002004906E
:1042B00001208DF8140001A91048FCF7A3FE01218C
:1042C0000E48FCF743FE0D48FCF720FF00BF0B48EB
:1042D000FCF78DFE0028FAD10848FCF727FF00BF45
:1042E0000648FCF76DFE0028FAD106B070BD00004C
:1042F00000080140000C0140C7CFFFFF002401402F
:10430000F0B50646FEF7E2FC054600BFFEF7DEFC10
:104310000446AC4201D3671B02E0C5F1FF30071928
:1043200006EB4600C0EBC610B7EBC00FEED3F0BDF6
:104330002DE9F0410C480068FCF746F906460B48A9
:1043400001680B480068FBF7EFFE07463146FBF7B4
:1043500043FF0546074801682846FBF737FF044638
:10436000FEF7CEFCBDE8F081900000207800002030
:104370004C0000207C00002070B514461D460E46FF
:10438000002814BF01210021314321F00041C1F177
:104390007F6101F1E041C90F16D1002C14BF01214A
:1043A0000021294321F00041C1F17F6101F1E04189
:1043B000C90F09D11449B1EB460F08BF00281CD022
:1043C000690008BF002C18D03146FCF743FB0246B9
:1043D00040F2FF7030EA11500DD0F017B0EBE17FE2
:1043E00009D0084665F31E0084460B462046614608
:1043F000FCF706F80246104670BD0120FEF754FB9C
:10440000BDE87040FEF72CBB0000E0FF00BF054A8E
:10441000128802F04002002AF9D0C2B2014B1B1DE3
:104420001A807047003801402DE9F05F0D480068A0
:10443000FCF7CAF88046FCF73FF904460D460A48E7
:104440000068FCF7CFF88046084A094BFBF7DBFF12
:10445000064622462B46FCF748F88246FCF770F9E0
:10446000BDE8F09F38000020D0000020EA2E445420
:10447000FB2119402DE9F14F8AB04FF07E50059095
:1044800002A800F039F902A807C806AB07C300214B
:104490000898FCF771F91DD1069C0798FCF70CF9F8
:1044A0000746454A454BFBF7AEFF82468B460698CA
:1044B000FCF702F90746404A414BFBF7A4FF52467E
:1044C0005B46CDE90201FBF7F7FE0546FCF738F93C
:1044D000814634E0DDE90601FBF726FE0746089930
:1044E000FBF722FE06463749FBF776FE804641463B
:1044F0000698FBF76BFE054641460798FBF766FEFC
:1045000004902C460498FCF7D7F806462A4A2B4B11
:10451000FBF779FFCDE902012846FCF7CDF8064606
:10452000254A274BFBF76FFFCDE90001DDE90223A8
:10453000FBF7C2FE8246FCF703F9814600BF00216B
:104540000A98FCF719F91FD00A98FEF7A9FF8246CE
:104550002146FBF741FE07460A98FEF7ABFA824672
:104560004946FBF739FE80463946FBF72FFE0646E3
:104570000021FCF70BF901D2012001E04FF0FF30E0
:104580000546FCF721F8059049464846FBF724FE0E
:10459000074621462046FBF71FFE80463946FBF7BB
:1045A000C3FD0646FFF7C8F805460599FBF714FE5C
:1045B0000BB0BDE8F08F000047409045A779F23F6F
:1045C000A779E23FABAAAA3E2DE9F04F8FB006468D
:1045D000894604A800F090F804A807C80BAB07C3ED
:1045E00000210D98FCF7C8F81DD10B9C0C98FCF726
:1045F00063F807463C4A3D4BFBF705FFCDE9040154
:104600000B98FCF759F80746374A394BFBF7FBFE86
:10461000CDE90201DDE90423FBF74EFE8246FCF7FB
:104620008FF8054635E0DDE90B01FBF77DFD80469F
:104630000D99FBF779FD07462E49FBF7CDFD834623
:1046400059460B98FBF7C2FD824659460C98FBF77A
:10465000BDFD069054460698FCF72EF80746224A00
:10466000224BFBF7D0FECDE902015046FCF724F8BF
:1046700007461D4A1E4BFBF7C6FECDE90001DDE9EA
:104680000223FBF719FECDE90401FCF759F80546B2
:1046900000BF4846FEF70EFA0A904846FEF700FFB4
:1046A000099028460999FBF797FD074620460A9985
:1046B000FBF792FD80463946FBF736FD0790204612
:1046C0000999FBF789FD074628460A99FBF784FDFF
:1046D00080463946FBF77AFD0890DDE90701C6E917
:1046E00000010FB0BDE8F08F47409045A779F23F39
:1046F000A779E23FABAAAA3EFEB504461F49087857
:10470000FEF7ACFE06461E4801683046FBF75EFD2C
:1047100005461C4801682846FBF75EFD00901A49D3
:104720000878FEF79BFE0646184801683046FBF7FE
:104730004DFD0546164801682846FBF74DFD0190E2
:10474000144800681449884201D100200FE0114943
:104750000878FEF783FE0646104801683046FBF7EE
:1047600035FD05460E4801682846FBF735FD0290E9
:104770009DE8070084E80700FEBD0000A0000020BF
:10478000B8000020AC000020A4000020BC000020E5
:10479000B0000020A8000020C7CFFFFFC00000200D
:1047A000B40000200149086870470000D0000020D4
:1047B0002DE9F04F85B0FEF789FA054638490968BA
:1047C000681AFBF701FF07463649FBF705FD049021
:1047D00000210498FBF7D0FF05D94FF07C510498D5
:1047E000FBF7D4FF01D23048049030490968681AB9
:1047F000FBF7EAFE07462B49FBF7EEFC04462C4884
:1048000000682C490968461A2B4801680498FBF790
:104810008BFC07462146FBF7D9FC81468EB14FF051
:1048200080410498FBF70AFD07464946FBF7A4FFC1
:1048300007D23046FBF7C8FE07464946FBF7FEFCA9
:1048400001E01E4800681D4908601D492046FBF72D
:104850009DFF02D20020194908601A480068FBF742
:10486000B3FE0146019015480068FBF7E7FC83465C
:10487000FBF722FF144A154BCDE90201FBF7C3FDFC
:104880000746FBF75DFF8246054805600A4804605D
:104890000748006807490860504605B0BDE8F08F3A
:1048A000F0000020BD3786356F12833AD400002017
:1048B000D0000020EC000020E4000020E8000020F0
:1048C000CDCCCC3D38000020EA2E4454FB211940C9
:1048D0001CB53A480078042803D0384800780328EB
:1048E00000D11CBD00F0E8FB35490860FFF720FD52
:1048F000344908603448007820B1012803D00228E8
:104900004DD11DE04FE02F480068FFF7B3FD2F4960
:104910004860084641682E48FDF762F82B49486018
:10492000084641682B480068FBF750FC04462146C6
:104930002948FDF70DFA294948600020086032E057
:10494000204801686846FFF73FFE2048DDE9001275
:1049500006C0083841681E48FDF742F81B49486008
:10496000084601681E48FDF73BF8184908600846EC
:10497000416818480068FBF729FC044621461648A0
:10498000FDF7E6F9154948601048006880F00044DA
:1049900021461448FDF7DCF91049086003E012A035
:1049A000FDF7E0FF00BF00BF0C4A11685068054AE0
:1049B000126800F08DF900BF93E700007500002039
:1049C0004C00002050000020740000206C000020EB
:1049D0008802002058000020F80100206400002018
:1049E000940200201C0200204D4F543A206E6F208C
:1049F000746F7271756520636F6E74726F6C207363
:104A0000656C656374656421000000001CB5FCF7EB
:104A1000EDFD4FF4E13000F0A1FBFDF7B7FB00F036
:104A200079FB4FF47A70FFF76BFCFDF723F8052054
:104A3000042303223C4900903C48FCF70FFFFCF79D
:104A400097FFFCF7A7FFFDF73BF9394839490860A4
:104A500001203949086039483949086039483A49DC
:104A600008603A483A4908603A483B4908600220E1
:104A70003A4908703A4908703A483B4908600020B2
:104A8000486038483949086000204860384839494A
:104A900008604FF07E5048604FF082403649086011
:104AA00036483449C86036483649086000203649DF
:104AB0000860FDF73DF800210846FDF78FF833A0A8
:104AC000FDF750FF2EE000F031FB3449096808443F
:104AD0003249086008460068314988421ADB0020E4
:104AE0002E4908602F48C06880F400502D49C860E6
:104AF0002D480068FBF7E0FD04460D462B48006892
:104B0000FBF7DAFD064632460B4629A0CDE9004503
:104B1000FDF728FF1C48006800F058F8FFF7D8FEA2
:104B2000FFF7ACFACFE7000000007A446F12833A37
:104B3000000040418400002090000020CDCC4C3F7C
:104B40008C0000200000C04088000020000070425F
:104B500098000020000048429C00002074000020C3
:104B600075000020CDCC4C3E1C020020F801002036
:104B7000CDCCCC3D40020020640200200000A042C9
:104B80000AD7233CA0020020CC0000204D6F746F98
:104B9000722072656164792E0D0A0000C800002041
:104BA00020A1070000100140540000204C0000200C
:104BB000416E673D252E32662020202C56656C3DC7
:104BC000252E32662020200D0A00000070B5044614
:104BD00000F08AFA3449086034480078052860D229
:104BE000DFE800F003320C4B55003148007810B973
:104BF0003048446001E03048046052E02F480460CF
:104C00002F4801682D480068FBF7E0FA0546294661
:104C10002C48FDF79DF82C490860234801682A4874
:104C20000068FBF7D3FA054629462848FDF790F8B7
:104C3000214908601E48007828B9084600681D49C7
:104C40004860002008602CE01F4804601648016896
:104C50001D480068FBF7BAFA054629461B48FDF7D0
:104C600077F8154908601248007828B908460068A6
:104C7000104948600020086013E013480460006891
:104C800000F0BCFA0B4948600020086009E00B48BE
:104C900004600068FEF768FF06494860002008606D
:104CA00000BF00BF70BD0000540000207500002050
:104CB00074000020640000205800002060000020E4
:104CC0004C000020640200205C0000204002002014
:104CD0002DE9F74F96B082468B4600215846FBF7E8
:104CE0004BFD38D051465046FBF776FA59461190A5
:104CF0005846FBF771FA10901199FBF715FA1290CC
:104D0000FEF71AFD1390E34801681398FBF796FA33
:104D100080465846FBF7D0FCCDE90A015046FBF728
:104D2000CBFCCDE90801DDE90A23FFF7C3F8CDE9A3
:104D30000E011898FBF7C0FCCDE90C01DDE90E234C
:104D4000FBF7BAFACDE91001FBF7FAFC1390FDF777
:104D5000D7FF189016E0CF4801685046FBF76EFA6F
:104D600080461898FBF7A8FCCB4ACC4BCDE90E0146
:104D7000FBF7A2FACDE91001FBF7E2FC1390FDF777
:104D8000BFFF18901898FBF797FCC54AC54BCDE9B3
:104D90000E01FBF7AAFB0022C34BCDE91001FBF784
:104DA0008BFACDE91201FBF76EFC07464046FBF794
:104DB00083FCCDE910011898FBF77EFCCDE90601D4
:104DC0003846FBF720FCB64AB64BCDE90201FBF7AB
:104DD0001AFBCDE90401DDE90623FBF70EFBCDE963
:104DE0000801FBF7ADFC0A90FEF75AFB0B90FBF7AE
:104DF00063FCAE4AAE4BCDE90C01FBF704FBCDE9F9
:104E00000E01DDE91023FBF7FEFACDE91201FBF7F5
:104E100097FC81464046FBF74FFCCDE91001384630
:104E2000FBF7F1FB0022A04BCDE90001FBF7E5FA0F
:104E30009B4A9C4BCDE90201FBF7E5FACDE906015F
:104E40001898FBF739FCCDE90401DDE90623FBF7EF
:104E5000D4FACDE90801FBF773FC0A90FEF720FBBA
:104E60000B90FBF729FC914A914BCDE90C01FBF724
:104E7000CAFACDE90E01DDE91023FBF7C4FACDE94A
:104E80001201FBF75DFC149049464FF07E50FBF792
:104E90009DF913901499FBF799F91590072F7DD27E
:104EA000DFE807F0C60424446486A6004FF0804182
:104EB0001598FBF7C3F9139048461499FBF734F99A
:104EC00012901399FBF730F904464FF08041159882
:104ED000FBF7B4F913901499FBF726F905464FF048
:104EE00080411598FBF7AAF90646A5E04FF08041EE
:104EF0001598FBF7A3F949461390FBF715F90446FB
:104F00004FF080411598FBF799F913904846149992
:104F1000FBF70AF912901399FBF706F905464FF0D3
:104F200080411598FBF78AF9064685E04FF08041ED
:104F30001598FBF783F904464FF080411598FBF76D
:104F40007DF9139048461499FBF7EEF812901399E7
:104F5000FBF7EAF805464FF080411598FBF76EF92C
:104F600013901499FBF7E0F8064665E04FF0804196
:104F70001598FBF763F904464FF080411598FBF74D
:104F80005DF949461390FBF7CFF805464FF0804195
:104F90001598FBF753F91390484600E048E0149940
:104FA000FBF7C2F812901399FBF7BEF8064643E0F0
:104FB0004FF080411598FBF741F913901499FBF7D6
:104FC000B3F804464FF080411598FBF737F90546D2
:104FD0004FF080411598FBF731F91390484614992A
:104FE000FBF7A2F812901399FBF79EF8064623E010
:104FF0004FF080411598FBF721F91390484614991A
:10500000FBF792F812901399FBF78EF804464FF0D5
:1050100080411598FBF712F905464FF0804115982D
:10502000FBF70CF949461390FBF77EF8064603E0C0
:1050300000240025002600BF00BF1E492046FBF7C4
:10504000CBF81290FBF7ECFA80B2014613904FF0C8
:105050008040FDF716FB17492846FBF7BDF8129074
:10506000FBF7DEFA80B2014613904FF08040FDF767
:105070000AFB10493046FBF7AFF81290FBF7D0FA65
:1050800080B2014613904FF08040FDF7FEFA19B050
:10509000BDE8F08F84000020F4D64354FB21F93F93
:1050A00040AF2D3852C1F03F0000F03F6B6058E830
:1050B0007AB6FB3F0000B44470B5FFF7B5F905467A
:1050C00007480068FBF780FA06462946FBF784F894
:1050D0000446044801682046FBF778F870BD0000DC
:1050E000800000207800002070B5FFF761FB0646C5
:1050F00031460648FCF774FC044605480068FBF797
:1051000063FA05462146FBF767F870BDA002002050
:105110008000002004484FF0E021486100208861B1
:1051200007200861704700004019010070B5FDF7C5
:10513000CDFD044608480068844203D30648006851
:10514000251A04E004480068C0F1FF300519024840
:105150000460284670BD0000C400002010B586B071
:105160000446012144F20400FCF7DAFE4FF400701B
:10517000ADF8140003208DF8160018208DF81700E4
:1051800005A91C48FCF788FA4FF48060ADF81400BC
:1051900004208DF8170005A91648FCF77DFA252094
:1051A0008DF8000003208DF801008DF80200012029
:1051B0008DF803006846FCF74BFD01940020ADF824
:1051C0000800ADF80A00ADF80C00ADF810000C2096
:1051D000ADF80E0001A90848FDF752FB012240F28C
:1051E00025510548FDF726FB01210348FDF7ECFAA0
:1051F00006B010BD00080140003801402DE9F0471D
:105200000446FDF763FD05461C490968681AFBF76B
:10521000E4F980461A49FAF7DFFF064617480560A9
:1052200000213046FBF7A8FA05D94FF07C513046F3
:10523000FBF7ACFA00D2134E31462046FAF7CCFF0A
:105240008146114801684846FAF76EFF8046FDF72F
:1052500057FD0D4908600D4804600D4807680D486A
:10526000016809480068FDF75BFC80464246002162
:105270003846FFF72DFD3846BDE8F0879400002042
:10528000BD3786356F12833A4C0000205400002051
:105290008800002090000020000000004F00000067
:1052A0009E000000ED0000003C0100008B010000AA
:1052B000D90100002802000077020000C6020000A9
:1052C0001503000063030000B203000000040000A7
:1052D0004F0400009D040000EC0400003A050000AB
:1052E00088050000D60500002406000072060000B4
:1052F000C00600000E0700005B070000A9070000C1
:10530000F60700004308000090080000DD080000D8
:105310002A09000077090000C30900000F0A0000F5
:105320005C0A0000A80A0000F40A00003F0B00001D
:105330008B0B0000D60B0000210C00006C0C000051
:10534000B70C0000010D00004C0D0000960D000090
:10535000E00D0000290E0000730E0000BC0E0000DE
:10536000050F00004E0F0000960F0000DF0F000039
:10537000271000006E100000B6100000FD100000A5
:10538000441100008B110000D11100001712000021
:105390005D120000A2120000E81200002D130000B0
:1053A00071130000B6130000F91300003D14000053
:1053B00081140000C4140000061500004915000007
:1053C0008B150000CC1500000E1600004F160000D3
:1053D0008F160000CF1600000F1700004F170000B7
:1053E0008E170000CD1700000B18000049180000B0
:1053F00087180000C4180000011900003D190000C2
:1054000079190000B5190000F01900002B1A0000EE
:10541000661A00009F1A0000D91A0000121B000033
:105420004B1B0000831B0000BB1B0000F21B000095
:10543000291C0000601C0000961C0000CB1C000012
:10544000001D0000351D0000691D00009D1D0000AD
:10545000D01D0000031E0000351E0000671E000066
:10546000981E0000C91E0000FA1E0000291F00003F
:10547000591F0000881F0000B61F0000E41F000035
:10548000112000003E2000006A200000962000004D
:10549000C1200000EC200000162100004021000087
:1054A0006921000092210000BA210000E1210000E2
:1054B000082200002F220000552200007A2200005E
:1054C0009F220000C3220000E72200000A23000000
:1054D0002D2300004F2300007023000091230000C3
:1054E000B2230000D1230000F12300000F240000AC
:1054F0002D2400004B2400006824000084240000B8
:10550000A0240000BB240000D5240000EF240000EC
:1055100009250000222500003A2500005225000040
:10552000692500007F25000095250000AA250000C0
:10553000BF250000D3250000E6250000F925000066
:105540000B2600001D2600002E2600003E2600002F
:105550004E2600005D2600006C2600007A26000022
:105560008726000094260000A0260000AB2600003D
:10557000B6260000C0260000CA260000D326000080
:10558000DB260000E3260000EA260000F1260000EA
:10559000F7260000FC260000012700000527000078
:1055A000082700000B2700000D2700000F27000030
:1055B00010270000102700004FBB610567ACDD3FDE
:1055C000182D4454FB21E93F9BF681D20B73EF3F2A
:1055D000182D4454FB21F93FE2652F227F2B7A3CA2
:1055E000075C143326A6813CBDCBF07A8807703C5B
:1055F000075C143326A6913CC4EB98999999C9BFCE
:10560000711623FEC671BCBF6D9A74AFF2B0B3BF02
:105610009AFDDE522DDEADBF2F6C6A2C44B4A2BFC2
:105620000D5555555555D53FFF8300922449C23F2E
:105630006E204CC5CD45B73F513DD0A0660DB13F62
:10564000EB0D76244B7BA93F11DA22E33AAD903F74
:105650000000000000000000DDDDDDDDDCBBBBDDA7
:10566000DDDDDDDDDDDDDDDD988888888888888802
:105670007777777777888888855555566666666622
:105680006666666666688888833333322222222201
:10569000222222222228888DB856000800000020ED
:1056A000F8000000882A0008B0570008F800002021
:1056B000B8050000982A0008000000000102030459
:1056C000010203040607080902040608000000009E
:1056D00000000000000000000000000000000000CA
:1056E00000000000000000000000000000000000BA
:1056F00000000000000000000000000000000000AA
:105700000000000000000000000000000000000099
:105710000000000000000000000000000000000089
:105720000000000000000000000000000000000079
:105730000000000000000000000000000000000069
:105740000000000000000000000000000000000059
:105750000000000000000000000000000000000049
:105760000000000000000000000000000000000039
:105770000000000000000000000000000000000029
:105780000000000000000000000000000000000019
:1057900000000000000000000000803F000000004A
:1057A00000000000000000000000000000000000F9
:04000005080000ED02
:00000001FF
